{"abi":[{"type":"constructor","inputs":[{"name":"_avsDirectory","type":"address","internalType":"contract IAVSDirectory"},{"name":"_registryCoordinator","type":"address","internalType":"contract IRegistryCoordinator"},{"name":"_stakeRegistry","type":"address","internalType":"contract IStakeRegistry"},{"name":"_incredibleSquaringTaskManager","type":"address","internalType":"contract IIncredibleSquaringTaskManager"}],"stateMutability":"nonpayable"},{"type":"function","name":"avsDirectory","inputs":[],"outputs":[{"name":"","type":"address","internalType":"address"}],"stateMutability":"view"},{"type":"function","name":"createAVSRewardsSubmission","inputs":[{"name":"rewardsSubmissions","type":"tuple[]","internalType":"struct IRewardsCoordinator.RewardsSubmission[]","components":[{"name":"strategiesAndMultipliers","type":"tuple[]","internalType":"struct IRewardsCoordinator.StrategyAndMultiplier[]","components":[{"name":"strategy","type":"address","internalType":"contract IStrategy"},{"name":"multiplier","type":"uint96","internalType":"uint96"}]},{"name":"token","type":"address","internalType":"contract IERC20"},{"name":"amount","type":"uint256","internalType":"uint256"},{"name":"startTimestamp","type":"uint32","internalType":"uint32"},{"name":"duration","type":"uint32","internalType":"uint32"}]}],"outputs":[],"stateMutability":"nonpayable"},{"type":"function","name":"deregisterOperatorFromAVS","inputs":[{"name":"operator","type":"address","internalType":"address"}],"outputs":[],"stateMutability":"nonpayable"},{"type":"function","name":"freezeOperator","inputs":[{"name":"operatorAddr","type":"address","internalType":"address"}],"outputs":[],"stateMutability":"nonpayable"},{"type":"function","name":"getOperatorRestakedStrategies","inputs":[{"name":"operator","type":"address","internalType":"address"}],"outputs":[{"name":"","type":"address[]","internalType":"address[]"}],"stateMutability":"view"},{"type":"function","name":"getRestakeableStrategies","inputs":[],"outputs":[{"name":"","type":"address[]","internalType":"address[]"}],"stateMutability":"view"},{"type":"function","name":"incredibleSquaringTaskManager","inputs":[],"outputs":[{"name":"","type":"address","internalType":"contract IIncredibleSquaringTaskManager"}],"stateMutability":"view"},{"type":"function","name":"owner","inputs":[],"outputs":[{"name":"","type":"address","internalType":"address"}],"stateMutability":"view"},{"type":"function","name":"registerOperatorToAVS","inputs":[{"name":"operator","type":"address","internalType":"address"},{"name":"operatorSignature","type":"tuple","internalType":"struct ISignatureUtils.SignatureWithSaltAndExpiry","components":[{"name":"signature","type":"bytes","internalType":"bytes"},{"name":"salt","type":"bytes32","internalType":"bytes32"},{"name":"expiry","type":"uint256","internalType":"uint256"}]}],"outputs":[],"stateMutability":"nonpayable"},{"type":"function","name":"renounceOwnership","inputs":[],"outputs":[],"stateMutability":"nonpayable"},{"type":"function","name":"rewardsInitiator","inputs":[],"outputs":[{"name":"","type":"address","internalType":"address"}],"stateMutability":"view"},{"type":"function","name":"setRewardsInitiator","inputs":[{"name":"newRewardsInitiator","type":"address","internalType":"address"}],"outputs":[],"stateMutability":"nonpayable"},{"type":"function","name":"transferOwnership","inputs":[{"name":"newOwner","type":"address","internalType":"address"}],"outputs":[],"stateMutability":"nonpayable"},{"type":"function","name":"updateAVSMetadataURI","inputs":[{"name":"_metadataURI","type":"string","internalType":"string"}],"outputs":[],"stateMutability":"nonpayable"},{"type":"event","name":"Initialized","inputs":[{"name":"version","type":"uint8","indexed":false,"internalType":"uint8"}],"anonymous":false},{"type":"event","name":"OwnershipTransferred","inputs":[{"name":"previousOwner","type":"address","indexed":true,"internalType":"address"},{"name":"newOwner","type":"address","indexed":true,"internalType":"address"}],"anonymous":false},{"type":"event","name":"RewardsInitiatorUpdated","inputs":[{"name":"prevRewardsInitiator","type":"address","indexed":false,"internalType":"address"},{"name":"newRewardsInitiator","type":"address","indexed":false,"internalType":"address"}],"anonymous":false}],"bytecode":{"object":"0x6101206040523480156200001257600080fd5b5060405162001da238038062001da283398101604081905262000035916200015a565b6001600160a01b03808516608052600060a081905281851660c05290831660e05284908484620000646200007f565b505050506001600160a01b03166101005250620001c2915050565b600054610100900460ff1615620000ec5760405162461bcd60e51b815260206004820152602760248201527f496e697469616c697a61626c653a20636f6e747261637420697320696e697469604482015266616c697a696e6760c81b606482015260840160405180910390fd5b60005460ff90811610156200013f576000805460ff191660ff9081179091556040519081527f7f26b83ff96e1f2b6a682f133852f6798a09c465da95921460cefb38474024989060200160405180910390a15b565b6001600160a01b03811681146200015757600080fd5b50565b600080600080608085870312156200017157600080fd5b84516200017e8162000141565b6020860151909450620001918162000141565b6040860151909350620001a48162000141565b6060860151909250620001b78162000141565b939692955090935050565b60805160a05160c05160e05161010051611b246200027e60003960008181610187015261070f01526000818161042e0152818161058a0152818161062101528181610a9101528181610c150152610cb4015260008181610259015281816102e801528181610368015281816107ed015281816108b9015281816109cf0152610b70015260008181610fe20152818161109e015261118a015260008181610142015281816108410152818161091501526109940152611b246000f3fe608060405234801561001057600080fd5b50600436106100ea5760003560e01c80639926ee7d1161008c578063e481af9d11610066578063e481af9d146101f3578063f2fde38b146101fb578063fc299dee1461020e578063fce36c7d1461022157600080fd5b80639926ee7d146101ba578063a364f4da146101cd578063a98fb355146101e057600080fd5b80636b3aa72e116100c85780636b3aa72e14610140578063715018a61461017a57806377ef731d146101825780638da5cb5b146101a957600080fd5b806333cfb7b7146100ef57806338c8ee64146101185780633bc28c8c1461012d575b600080fd5b6101026100fd3660046113df565b610234565b60405161010f9190611403565b60405180910390f35b61012b6101263660046113df565b610704565b005b61012b61013b3660046113df565b6107bd565b7f00000000000000000000000000000000000000000000000000000000000000005b6040516001600160a01b03909116815260200161010f565b61012b6107ce565b6101627f000000000000000000000000000000000000000000000000000000000000000081565b6033546001600160a01b0316610162565b61012b6101c8366004611505565b6107e2565b61012b6101db3660046113df565b6108ae565b61012b6101ee3660046115b0565b610975565b6101026109c9565b61012b6102093660046113df565b610d93565b606554610162906001600160a01b031681565b61012b61022f366004611601565b610e09565b6040516309aa152760e11b81526001600160a01b0382811660048301526060916000917f000000000000000000000000000000000000000000000000000000000000000016906313542a4e90602401602060405180830381865afa1580156102a0573d6000803e3d6000fd5b505050506040513d601f19601f820116820180604052508101906102c49190611676565b60405163871ef04960e01b8152600481018290529091506000906001600160a01b037f0000000000000000000000000000000000000000000000000000000000000000169063871ef04990602401602060405180830381865afa15801561032f573d6000803e3d6000fd5b505050506040513d601f19601f82011682018060405250810190610353919061168f565b90506001600160c01b03811615806103ed57507f00000000000000000000000000000000000000000000000000000000000000006001600160a01b0316639aa1653d6040518163ffffffff1660e01b8152600401602060405180830381865afa1580156103c4573d6000803e3d6000fd5b505050506040513d601f19601f820116820180604052508101906103e891906116b8565b60ff16155b1561040957505060408051600081526020810190915292915050565b600061041d826001600160c01b03166111c1565b90506000805b82518110156104f3577f00000000000000000000000000000000000000000000000000000000000000006001600160a01b0316633ca5a5f584838151811061046d5761046d6116db565b01602001516040516001600160e01b031960e084901b16815260f89190911c6004820152602401602060405180830381865afa1580156104b1573d6000803e3d6000fd5b505050506040513d601f19601f820116820180604052508101906104d59190611676565b6104df9083611707565b9150806104eb8161171f565b915050610423565b5060008167ffffffffffffffff81111561050f5761050f611450565b604051908082528060200260200182016040528015610538578160200160208202803683370190505b5090506000805b84518110156106f757600085828151811061055c5761055c6116db565b0160200151604051633ca5a5f560e01b815260f89190911c6004820181905291506000906001600160a01b037f00000000000000000000000000000000000000000000000000000000000000001690633ca5a5f590602401602060405180830381865afa1580156105d1573d6000803e3d6000fd5b505050506040513d601f19601f820116820180604052508101906105f59190611676565b905060005b818110156106e1576040516356e4026d60e11b815260ff84166004820152602481018290527f00000000000000000000000000000000000000000000000000000000000000006001600160a01b03169063adc804da906044016040805180830381865afa15801561066f573d6000803e3d6000fd5b505050506040513d601f19601f820116820180604052508101906106939190611754565b600001518686815181106106a9576106a96116db565b6001600160a01b0390921660209283029190910190910152846106cb8161171f565b95505080806106d99061171f565b9150506105fa565b50505080806106ef9061171f565b91505061053f565b5090979650505050505050565b336001600160a01b037f000000000000000000000000000000000000000000000000000000000000000016146107ba5760405162461bcd60e51b815260206004820152604a60248201527f6f6e6c79496e6372656469626c655371756172696e675461736b4d616e61676560448201527f723a206e6f742066726f6d206372656469626c65207371756172696e6720746160648201526939b59036b0b730b3b2b960b11b608482015260a4015b60405180910390fd5b50565b6107c5611284565b6107ba816112de565b6107d6611284565b6107e06000611347565b565b336001600160a01b037f0000000000000000000000000000000000000000000000000000000000000000161461082a5760405162461bcd60e51b81526004016107b1906117b3565b604051639926ee7d60e01b81526001600160a01b037f00000000000000000000000000000000000000000000000000000000000000001690639926ee7d906108789085908590600401611878565b600060405180830381600087803b15801561089257600080fd5b505af11580156108a6573d6000803e3d6000fd5b505050505050565b336001600160a01b037f000000000000000000000000000000000000000000000000000000000000000016146108f65760405162461bcd60e51b81526004016107b1906117b3565b6040516351b27a6d60e11b81526001600160a01b0382811660048301527f0000000000000000000000000000000000000000000000000000000000000000169063a364f4da906024015b600060405180830381600087803b15801561095a57600080fd5b505af115801561096e573d6000803e3d6000fd5b5050505050565b61097d611284565b60405163a98fb35560e01b81526001600160a01b037f0000000000000000000000000000000000000000000000000000000000000000169063a98fb355906109409084906004016118c3565b606060007f00000000000000000000000000000000000000000000000000000000000000006001600160a01b0316639aa1653d6040518163ffffffff1660e01b8152600401602060405180830381865afa158015610a2b573d6000803e3d6000fd5b505050506040513d601f19601f82011682018060405250810190610a4f91906116b8565b60ff16905080610a6d57505060408051600081526020810190915290565b6000805b82811015610b2257604051633ca5a5f560e01b815260ff821660048201527f00000000000000000000000000000000000000000000000000000000000000006001600160a01b031690633ca5a5f590602401602060405180830381865afa158015610ae0573d6000803e3d6000fd5b505050506040513d601f19601f82011682018060405250810190610b049190611676565b610b0e9083611707565b915080610b1a8161171f565b915050610a71565b5060008167ffffffffffffffff811115610b3e57610b3e611450565b604051908082528060200260200182016040528015610b67578160200160208202803683370190505b5090506000805b7f00000000000000000000000000000000000000000000000000000000000000006001600160a01b0316639aa1653d6040518163ffffffff1660e01b8152600401602060405180830381865afa158015610bcc573d6000803e3d6000fd5b505050506040513d601f19601f82011682018060405250810190610bf091906116b8565b60ff16811015610d8957604051633ca5a5f560e01b815260ff821660048201526000907f00000000000000000000000000000000000000000000000000000000000000006001600160a01b031690633ca5a5f590602401602060405180830381865afa158015610c64573d6000803e3d6000fd5b505050506040513d601f19601f82011682018060405250810190610c889190611676565b905060005b81811015610d74576040516356e4026d60e11b815260ff84166004820152602481018290527f00000000000000000000000000000000000000000000000000000000000000006001600160a01b03169063adc804da906044016040805180830381865afa158015610d02573d6000803e3d6000fd5b505050506040513d601f19601f82011682018060405250810190610d269190611754565b60000151858581518110610d3c57610d3c6116db565b6001600160a01b039092166020928302919091019091015283610d5e8161171f565b9450508080610d6c9061171f565b915050610c8d565b50508080610d819061171f565b915050610b6e565b5090949350505050565b610d9b611284565b6001600160a01b038116610e005760405162461bcd60e51b815260206004820152602660248201527f4f776e61626c653a206e6577206f776e657220697320746865207a65726f206160448201526564647265737360d01b60648201526084016107b1565b6107ba81611347565b6065546001600160a01b03163314610e9e5760405162461bcd60e51b815260206004820152604c60248201527f536572766963654d616e61676572426173652e6f6e6c7952657761726473496e60448201527f69746961746f723a2063616c6c6572206973206e6f742074686520726577617260648201526b32399034b734ba34b0ba37b960a11b608482015260a4016107b1565b60005b8181101561117257828282818110610ebb57610ebb6116db565b9050602002810190610ecd91906118d6565b610ede9060408101906020016113df565b6001600160a01b03166323b872dd3330868686818110610f0057610f006116db565b9050602002810190610f1291906118d6565b604080516001600160e01b031960e087901b1681526001600160a01b039485166004820152939092166024840152013560448201526064016020604051808303816000875af1158015610f69573d6000803e3d6000fd5b505050506040513d601f19601f82011682018060405250810190610f8d9190611906565b506000838383818110610fa257610fa26116db565b9050602002810190610fb491906118d6565b610fc59060408101906020016113df565b604051636eb1769f60e11b81523060048201526001600160a01b037f000000000000000000000000000000000000000000000000000000000000000081166024830152919091169063dd62ed3e90604401602060405180830381865afa158015611033573d6000803e3d6000fd5b505050506040513d601f19601f820116820180604052508101906110579190611676565b905083838381811061106b5761106b6116db565b905060200281019061107d91906118d6565b61108e9060408101906020016113df565b6001600160a01b031663095ea7b37f0000000000000000000000000000000000000000000000000000000000000000838787878181106110d0576110d06116db565b90506020028101906110e291906118d6565b604001356110f09190611707565b6040516001600160e01b031960e085901b1681526001600160a01b03909216600483015260248201526044016020604051808303816000875af115801561113b573d6000803e3d6000fd5b505050506040513d601f19601f8201168201806040525081019061115f9190611906565b50508061116b9061171f565b9050610ea1565b5060405163fce36c7d60e01b81526001600160a01b037f0000000000000000000000000000000000000000000000000000000000000000169063fce36c7d9061087890859085906004016119a7565b60606000806111cf84611399565b61ffff1667ffffffffffffffff8111156111eb576111eb611450565b6040519080825280601f01601f191660200182016040528015611215576020820181803683370190505b5090506000805b82518210801561122d575061010081105b15610d89576001811b935085841615611274578060f81b838381518110611256576112566116db565b60200101906001600160f81b031916908160001a9053508160010191505b61127d8161171f565b905061121c565b6033546001600160a01b031633146107e05760405162461bcd60e51b815260206004820181905260248201527f4f776e61626c653a2063616c6c6572206973206e6f7420746865206f776e657260448201526064016107b1565b606554604080516001600160a01b03928316815291831660208301527fe11cddf1816a43318ca175bbc52cd0185436e9cbead7c83acc54a73e461717e3910160405180910390a1606580546001600160a01b0319166001600160a01b0392909216919091179055565b603380546001600160a01b038381166001600160a01b0319831681179093556040519116919082907f8be0079c531659141344cd1fd0a4f28419497f9722a3daafe3b4186f6b6457e090600090a35050565b6000805b82156113c4576113ae600184611ab5565b90921691806113bc81611acc565b91505061139d565b92915050565b6001600160a01b03811681146107ba57600080fd5b6000602082840312156113f157600080fd5b81356113fc816113ca565b9392505050565b6020808252825182820181905260009190848201906040850190845b818110156114445783516001600160a01b03168352928401929184019160010161141f565b50909695505050505050565b634e487b7160e01b600052604160045260246000fd5b6040516060810167ffffffffffffffff8111828210171561148957611489611450565b60405290565b600067ffffffffffffffff808411156114aa576114aa611450565b604051601f8501601f19908116603f011681019082821181831017156114d2576114d2611450565b816040528093508581528686860111156114eb57600080fd5b858560208301376000602087830101525050509392505050565b6000806040838503121561151857600080fd5b8235611523816113ca565b9150602083013567ffffffffffffffff8082111561154057600080fd5b908401906060828703121561155457600080fd5b61155c611466565b82358281111561156b57600080fd5b83019150601f8201871361157e57600080fd5b61158d8783356020850161148f565b815260208301356020820152604083013560408201528093505050509250929050565b6000602082840312156115c257600080fd5b813567ffffffffffffffff8111156115d957600080fd5b8201601f810184136115ea57600080fd5b6115f98482356020840161148f565b949350505050565b6000806020838503121561161457600080fd5b823567ffffffffffffffff8082111561162c57600080fd5b818501915085601f83011261164057600080fd5b81358181111561164f57600080fd5b8660208260051b850101111561166457600080fd5b60209290920196919550909350505050565b60006020828403121561168857600080fd5b5051919050565b6000602082840312156116a157600080fd5b81516001600160c01b03811681146113fc57600080fd5b6000602082840312156116ca57600080fd5b815160ff811681146113fc57600080fd5b634e487b7160e01b600052603260045260246000fd5b634e487b7160e01b600052601160045260246000fd5b6000821982111561171a5761171a6116f1565b500190565b6000600019821415611733576117336116f1565b5060010190565b6bffffffffffffffffffffffff811681146107ba57600080fd5b60006040828403121561176657600080fd5b6040516040810181811067ffffffffffffffff8211171561178957611789611450565b6040528251611797816113ca565b815260208301516117a78161173a565b60208201529392505050565b60208082526052908201527f536572766963654d616e61676572426173652e6f6e6c7952656769737472794360408201527f6f6f7264696e61746f723a2063616c6c6572206973206e6f742074686520726560608201527133b4b9ba393c9031b7b7b93234b730ba37b960711b608082015260a00190565b6000815180845260005b8181101561185157602081850181015186830182015201611835565b81811115611863576000602083870101525b50601f01601f19169290920160200192915050565b60018060a01b03831681526040602082015260008251606060408401526118a260a084018261182b565b90506020840151606084015260408401516080840152809150509392505050565b6020815260006113fc602083018461182b565b60008235609e198336030181126118ec57600080fd5b9190910192915050565b8035611901816113ca565b919050565b60006020828403121561191857600080fd5b815180151581146113fc57600080fd5b8183526000602080850194508260005b8581101561198857813561194b816113ca565b6001600160a01b03168752818301356119638161173a565b6bffffffffffffffffffffffff16878401526040968701969190910190600101611938565b509495945050505050565b803563ffffffff8116811461190157600080fd5b60208082528181018390526000906040808401600586901b8501820187855b88811015611aa757878303603f190184528135368b9003609e190181126119ec57600080fd5b8a0160a0813536839003601e19018112611a0557600080fd5b8201803567ffffffffffffffff811115611a1e57600080fd5b8060061b3603841315611a3057600080fd5b828752611a42838801828c8501611928565b92505050611a518883016118f6565b6001600160a01b03168886015281870135878601526060611a73818401611993565b63ffffffff16908601526080611a8a838201611993565b63ffffffff169501949094525092850192908501906001016119c6565b509098975050505050505050565b600082821015611ac757611ac76116f1565b500390565b600061ffff80831681811415611ae457611ae46116f1565b600101939250505056fea2646970667358221220f0f7bb87db51c6ff09b4c3cbb937181826e0ffef09f691bac7501bc26bc3fc6064736f6c634300080c0033","linkReferences":{}},"methodIdentifiers":{"avsDirectory()":"6b3aa72e","createAVSRewardsSubmission(((address,uint96)[],address,uint256,uint32,uint32)[])":"fce36c7d","deregisterOperatorFromAVS(address)":"a364f4da","freezeOperator(address)":"38c8ee64","getOperatorRestakedStrategies(address)":"33cfb7b7","getRestakeableStrategies()":"e481af9d","incredibleSquaringTaskManager()":"77ef731d","owner()":"8da5cb5b","registerOperatorToAVS(address,(bytes,bytes32,uint256))":"9926ee7d","renounceOwnership()":"715018a6","rewardsInitiator()":"fc299dee","setRewardsInitiator(address)":"3bc28c8c","transferOwnership(address)":"f2fde38b","updateAVSMetadataURI(string)":"a98fb355"},"id":98}