{"abi":[{"type":"constructor","inputs":[{"name":"_registryCoordinator","type":"address","internalType":"contract IRegistryCoordinator"},{"name":"_taskResponseWindowBlock","type":"uint32","internalType":"uint32"}],"stateMutability":"nonpayable"},{"type":"function","name":"TASK_CHALLENGE_WINDOW_BLOCK","inputs":[],"outputs":[{"name":"","type":"uint32","internalType":"uint32"}],"stateMutability":"view"},{"type":"function","name":"TASK_RESPONSE_WINDOW_BLOCK","inputs":[],"outputs":[{"name":"","type":"uint32","internalType":"uint32"}],"stateMutability":"view"},{"type":"function","name":"aggregator","inputs":[],"outputs":[{"name":"","type":"address","internalType":"address"}],"stateMutability":"view"},{"type":"function","name":"allTaskHashes","inputs":[{"name":"","type":"uint32","internalType":"uint32"}],"outputs":[{"name":"","type":"bytes32","internalType":"bytes32"}],"stateMutability":"view"},{"type":"function","name":"allTaskResponses","inputs":[{"name":"","type":"uint32","internalType":"uint32"}],"outputs":[{"name":"","type":"bytes32","internalType":"bytes32"}],"stateMutability":"view"},{"type":"function","name":"blsApkRegistry","inputs":[],"outputs":[{"name":"","type":"address","internalType":"contract IBLSApkRegistry"}],"stateMutability":"view"},{"type":"function","name":"checkSignatures","inputs":[{"name":"msgHash","type":"bytes32","internalType":"bytes32"},{"name":"quorumNumbers","type":"bytes","internalType":"bytes"},{"name":"referenceBlockNumber","type":"uint32","internalType":"uint32"},{"name":"params","type":"tuple","internalType":"struct IBLSSignatureChecker.NonSignerStakesAndSignature","components":[{"name":"nonSignerQuorumBitmapIndices","type":"uint32[]","internalType":"uint32[]"},{"name":"nonSignerPubkeys","type":"tuple[]","internalType":"struct BN254.G1Point[]","components":[{"name":"X","type":"uint256","internalType":"uint256"},{"name":"Y","type":"uint256","internalType":"uint256"}]},{"name":"quorumApks","type":"tuple[]","internalType":"struct BN254.G1Point[]","components":[{"name":"X","type":"uint256","internalType":"uint256"},{"name":"Y","type":"uint256","internalType":"uint256"}]},{"name":"apkG2","type":"tuple","internalType":"struct BN254.G2Point","components":[{"name":"X","type":"uint256[2]","internalType":"uint256[2]"},{"name":"Y","type":"uint256[2]","internalType":"uint256[2]"}]},{"name":"sigma","type":"tuple","internalType":"struct BN254.G1Point","components":[{"name":"X","type":"uint256","internalType":"uint256"},{"name":"Y","type":"uint256","internalType":"uint256"}]},{"name":"quorumApkIndices","type":"uint32[]","internalType":"uint32[]"},{"name":"totalStakeIndices","type":"uint32[]","internalType":"uint32[]"},{"name":"nonSignerStakeIndices","type":"uint32[][]","internalType":"uint32[][]"}]}],"outputs":[{"name":"","type":"tuple","internalType":"struct IBLSSignatureChecker.QuorumStakeTotals","components":[{"name":"signedStakeForQuorum","type":"uint96[]","internalType":"uint96[]"},{"name":"totalStakeForQuorum","type":"uint96[]","internalType":"uint96[]"}]},{"name":"","type":"bytes32","internalType":"bytes32"}],"stateMutability":"view"},{"type":"function","name":"createNewTask","inputs":[{"name":"numberToBeSquared","type":"uint256","internalType":"uint256"},{"name":"quorumThresholdPercentage","type":"uint32","internalType":"uint32"},{"name":"quorumNumbers","type":"bytes","internalType":"bytes"}],"outputs":[],"stateMutability":"nonpayable"},{"type":"function","name":"delegation","inputs":[],"outputs":[{"name":"","type":"address","internalType":"contract IDelegationManager"}],"stateMutability":"view"},{"type":"function","name":"generator","inputs":[],"outputs":[{"name":"","type":"address","internalType":"address"}],"stateMutability":"view"},{"type":"function","name":"getBatchOperatorFromId","inputs":[{"name":"registryCoordinator","type":"address","internalType":"contract IRegistryCoordinator"},{"name":"operatorIds","type":"bytes32[]","internalType":"bytes32[]"}],"outputs":[{"name":"operators","type":"address[]","internalType":"address[]"}],"stateMutability":"view"},{"type":"function","name":"getBatchOperatorId","inputs":[{"name":"registryCoordinator","type":"address","internalType":"contract IRegistryCoordinator"},{"name":"operators","type":"address[]","internalType":"address[]"}],"outputs":[{"name":"operatorIds","type":"bytes32[]","internalType":"bytes32[]"}],"stateMutability":"view"},{"type":"function","name":"getCheckSignaturesIndices","inputs":[{"name":"registryCoordinator","type":"address","internalType":"contract IRegistryCoordinator"},{"name":"referenceBlockNumber","type":"uint32","internalType":"uint32"},{"name":"quorumNumbers","type":"bytes","internalType":"bytes"},{"name":"nonSignerOperatorIds","type":"bytes32[]","internalType":"bytes32[]"}],"outputs":[{"name":"","type":"tuple","internalType":"struct OperatorStateRetriever.CheckSignaturesIndices","components":[{"name":"nonSignerQuorumBitmapIndices","type":"uint32[]","internalType":"uint32[]"},{"name":"quorumApkIndices","type":"uint32[]","internalType":"uint32[]"},{"name":"totalStakeIndices","type":"uint32[]","internalType":"uint32[]"},{"name":"nonSignerStakeIndices","type":"uint32[][]","internalType":"uint32[][]"}]}],"stateMutability":"view"},{"type":"function","name":"getOperatorState","inputs":[{"name":"registryCoordinator","type":"address","internalType":"contract IRegistryCoordinator"},{"name":"quorumNumbers","type":"bytes","internalType":"bytes"},{"name":"blockNumber","type":"uint32","internalType":"uint32"}],"outputs":[{"name":"","type":"tuple[][]","internalType":"struct OperatorStateRetriever.Operator[][]","components":[{"name":"operator","type":"address","internalType":"address"},{"name":"operatorId","type":"bytes32","internalType":"bytes32"},{"name":"stake","type":"uint96","internalType":"uint96"}]}],"stateMutability":"view"},{"type":"function","name":"getOperatorState","inputs":[{"name":"registryCoordinator","type":"address","internalType":"contract IRegistryCoordinator"},{"name":"operatorId","type":"bytes32","internalType":"bytes32"},{"name":"blockNumber","type":"uint32","internalType":"uint32"}],"outputs":[{"name":"","type":"uint256","internalType":"uint256"},{"name":"","type":"tuple[][]","internalType":"struct OperatorStateRetriever.Operator[][]","components":[{"name":"operator","type":"address","internalType":"address"},{"name":"operatorId","type":"bytes32","internalType":"bytes32"},{"name":"stake","type":"uint96","internalType":"uint96"}]}],"stateMutability":"view"},{"type":"function","name":"getQuorumBitmapsAtBlockNumber","inputs":[{"name":"registryCoordinator","type":"address","internalType":"contract IRegistryCoordinator"},{"name":"operatorIds","type":"bytes32[]","internalType":"bytes32[]"},{"name":"blockNumber","type":"uint32","internalType":"uint32"}],"outputs":[{"name":"","type":"uint256[]","internalType":"uint256[]"}],"stateMutability":"view"},{"type":"function","name":"getTaskResponseWindowBlock","inputs":[],"outputs":[{"name":"","type":"uint32","internalType":"uint32"}],"stateMutability":"view"},{"type":"function","name":"initialize","inputs":[{"name":"_pauserRegistry","type":"address","internalType":"contract IPauserRegistry"},{"name":"initialOwner","type":"address","internalType":"address"},{"name":"_aggregator","type":"address","internalType":"address"},{"name":"_generator","type":"address","internalType":"address"}],"outputs":[],"stateMutability":"nonpayable"},{"type":"function","name":"latestTaskNum","inputs":[],"outputs":[{"name":"","type":"uint32","internalType":"uint32"}],"stateMutability":"view"},{"type":"function","name":"owner","inputs":[],"outputs":[{"name":"","type":"address","internalType":"address"}],"stateMutability":"view"},{"type":"function","name":"pause","inputs":[{"name":"newPausedStatus","type":"uint256","internalType":"uint256"}],"outputs":[],"stateMutability":"nonpayable"},{"type":"function","name":"pauseAll","inputs":[],"outputs":[],"stateMutability":"nonpayable"},{"type":"function","name":"paused","inputs":[{"name":"index","type":"uint8","internalType":"uint8"}],"outputs":[{"name":"","type":"bool","internalType":"bool"}],"stateMutability":"view"},{"type":"function","name":"paused","inputs":[],"outputs":[{"name":"","type":"uint256","internalType":"uint256"}],"stateMutability":"view"},{"type":"function","name":"pauserRegistry","inputs":[],"outputs":[{"name":"","type":"address","internalType":"contract IPauserRegistry"}],"stateMutability":"view"},{"type":"function","name":"raiseAndResolveChallenge","inputs":[{"name":"task","type":"tuple","internalType":"struct IIncredibleSquaringTaskManager.Task","components":[{"name":"numberToBeSquared","type":"uint256","internalType":"uint256"},{"name":"taskCreatedBlock","type":"uint32","internalType":"uint32"},{"name":"quorumNumbers","type":"bytes","internalType":"bytes"},{"name":"quorumThresholdPercentage","type":"uint32","internalType":"uint32"}]},{"name":"taskResponse","type":"tuple","internalType":"struct IIncredibleSquaringTaskManager.TaskResponse","components":[{"name":"referenceTaskIndex","type":"uint32","internalType":"uint32"},{"name":"numberSquared","type":"uint256","internalType":"uint256"}]},{"name":"taskResponseMetadata","type":"tuple","internalType":"struct IIncredibleSquaringTaskManager.TaskResponseMetadata","components":[{"name":"taskResponsedBlock","type":"uint32","internalType":"uint32"},{"name":"hashOfNonSigners","type":"bytes32","internalType":"bytes32"}]},{"name":"pubkeysOfNonSigningOperators","type":"tuple[]","internalType":"struct BN254.G1Point[]","components":[{"name":"X","type":"uint256","internalType":"uint256"},{"name":"Y","type":"uint256","internalType":"uint256"}]}],"outputs":[],"stateMutability":"nonpayable"},{"type":"function","name":"registryCoordinator","inputs":[],"outputs":[{"name":"","type":"address","internalType":"contract IRegistryCoordinator"}],"stateMutability":"view"},{"type":"function","name":"renounceOwnership","inputs":[],"outputs":[],"stateMutability":"nonpayable"},{"type":"function","name":"respondToTask","inputs":[{"name":"task","type":"tuple","internalType":"struct IIncredibleSquaringTaskManager.Task","components":[{"name":"numberToBeSquared","type":"uint256","internalType":"uint256"},{"name":"taskCreatedBlock","type":"uint32","internalType":"uint32"},{"name":"quorumNumbers","type":"bytes","internalType":"bytes"},{"name":"quorumThresholdPercentage","type":"uint32","internalType":"uint32"}]},{"name":"taskResponse","type":"tuple","internalType":"struct IIncredibleSquaringTaskManager.TaskResponse","components":[{"name":"referenceTaskIndex","type":"uint32","internalType":"uint32"},{"name":"numberSquared","type":"uint256","internalType":"uint256"}]},{"name":"nonSignerStakesAndSignature","type":"tuple","internalType":"struct IBLSSignatureChecker.NonSignerStakesAndSignature","components":[{"name":"nonSignerQuorumBitmapIndices","type":"uint32[]","internalType":"uint32[]"},{"name":"nonSignerPubkeys","type":"tuple[]","internalType":"struct BN254.G1Point[]","components":[{"name":"X","type":"uint256","internalType":"uint256"},{"name":"Y","type":"uint256","internalType":"uint256"}]},{"name":"quorumApks","type":"tuple[]","internalType":"struct BN254.G1Point[]","components":[{"name":"X","type":"uint256","internalType":"uint256"},{"name":"Y","type":"uint256","internalType":"uint256"}]},{"name":"apkG2","type":"tuple","internalType":"struct BN254.G2Point","components":[{"name":"X","type":"uint256[2]","internalType":"uint256[2]"},{"name":"Y","type":"uint256[2]","internalType":"uint256[2]"}]},{"name":"sigma","type":"tuple","internalType":"struct BN254.G1Point","components":[{"name":"X","type":"uint256","internalType":"uint256"},{"name":"Y","type":"uint256","internalType":"uint256"}]},{"name":"quorumApkIndices","type":"uint32[]","internalType":"uint32[]"},{"name":"totalStakeIndices","type":"uint32[]","internalType":"uint32[]"},{"name":"nonSignerStakeIndices","type":"uint32[][]","internalType":"uint32[][]"}]}],"outputs":[],"stateMutability":"nonpayable"},{"type":"function","name":"setPauserRegistry","inputs":[{"name":"newPauserRegistry","type":"address","internalType":"contract IPauserRegistry"}],"outputs":[],"stateMutability":"nonpayable"},{"type":"function","name":"setStaleStakesForbidden","inputs":[{"name":"value","type":"bool","internalType":"bool"}],"outputs":[],"stateMutability":"nonpayable"},{"type":"function","name":"stakeRegistry","inputs":[],"outputs":[{"name":"","type":"address","internalType":"contract IStakeRegistry"}],"stateMutability":"view"},{"type":"function","name":"staleStakesForbidden","inputs":[],"outputs":[{"name":"","type":"bool","internalType":"bool"}],"stateMutability":"view"},{"type":"function","name":"taskNumber","inputs":[],"outputs":[{"name":"","type":"uint32","internalType":"uint32"}],"stateMutability":"view"},{"type":"function","name":"taskSuccesfullyChallenged","inputs":[{"name":"","type":"uint32","internalType":"uint32"}],"outputs":[{"name":"","type":"bool","internalType":"bool"}],"stateMutability":"view"},{"type":"function","name":"transferOwnership","inputs":[{"name":"newOwner","type":"address","internalType":"address"}],"outputs":[],"stateMutability":"nonpayable"},{"type":"function","name":"trySignatureAndApkVerification","inputs":[{"name":"msgHash","type":"bytes32","internalType":"bytes32"},{"name":"apk","type":"tuple","internalType":"struct BN254.G1Point","components":[{"name":"X","type":"uint256","internalType":"uint256"},{"name":"Y","type":"uint256","internalType":"uint256"}]},{"name":"apkG2","type":"tuple","internalType":"struct BN254.G2Point","components":[{"name":"X","type":"uint256[2]","internalType":"uint256[2]"},{"name":"Y","type":"uint256[2]","internalType":"uint256[2]"}]},{"name":"sigma","type":"tuple","internalType":"struct BN254.G1Point","components":[{"name":"X","type":"uint256","internalType":"uint256"},{"name":"Y","type":"uint256","internalType":"uint256"}]}],"outputs":[{"name":"pairingSuccessful","type":"bool","internalType":"bool"},{"name":"siganatureIsValid","type":"bool","internalType":"bool"}],"stateMutability":"view"},{"type":"function","name":"unpause","inputs":[{"name":"newPausedStatus","type":"uint256","internalType":"uint256"}],"outputs":[],"stateMutability":"nonpayable"},{"type":"event","name":"Initialized","inputs":[{"name":"version","type":"uint8","indexed":false,"internalType":"uint8"}],"anonymous":false},{"type":"event","name":"NewTaskCreated","inputs":[{"name":"taskIndex","type":"uint32","indexed":true,"internalType":"uint32"},{"name":"task","type":"tuple","indexed":false,"internalType":"struct IIncredibleSquaringTaskManager.Task","components":[{"name":"numberToBeSquared","type":"uint256","internalType":"uint256"},{"name":"taskCreatedBlock","type":"uint32","internalType":"uint32"},{"name":"quorumNumbers","type":"bytes","internalType":"bytes"},{"name":"quorumThresholdPercentage","type":"uint32","internalType":"uint32"}]}],"anonymous":false},{"type":"event","name":"OwnershipTransferred","inputs":[{"name":"previousOwner","type":"address","indexed":true,"internalType":"address"},{"name":"newOwner","type":"address","indexed":true,"internalType":"address"}],"anonymous":false},{"type":"event","name":"Paused","inputs":[{"name":"account","type":"address","indexed":true,"internalType":"address"},{"name":"newPausedStatus","type":"uint256","indexed":false,"internalType":"uint256"}],"anonymous":false},{"type":"event","name":"PauserRegistrySet","inputs":[{"name":"pauserRegistry","type":"address","indexed":false,"internalType":"contract IPauserRegistry"},{"name":"newPauserRegistry","type":"address","indexed":false,"internalType":"contract IPauserRegistry"}],"anonymous":false},{"type":"event","name":"StaleStakesForbiddenUpdate","inputs":[{"name":"value","type":"bool","indexed":false,"internalType":"bool"}],"anonymous":false},{"type":"event","name":"TaskChallengedSuccessfully","inputs":[{"name":"taskIndex","type":"uint32","indexed":true,"internalType":"uint32"},{"name":"challenger","type":"address","indexed":true,"internalType":"address"}],"anonymous":false},{"type":"event","name":"TaskChallengedUnsuccessfully","inputs":[{"name":"taskIndex","type":"uint32","indexed":true,"internalType":"uint32"},{"name":"challenger","type":"address","indexed":true,"internalType":"address"}],"anonymous":false},{"type":"event","name":"TaskCompleted","inputs":[{"name":"taskIndex","type":"uint32","indexed":true,"internalType":"uint32"}],"anonymous":false},{"type":"event","name":"TaskResponded","inputs":[{"name":"taskResponse","type":"tuple","indexed":false,"internalType":"struct IIncredibleSquaringTaskManager.TaskResponse","components":[{"name":"referenceTaskIndex","type":"uint32","internalType":"uint32"},{"name":"numberSquared","type":"uint256","internalType":"uint256"}]},{"name":"taskResponseMetadata","type":"tuple","indexed":false,"internalType":"struct IIncredibleSquaringTaskManager.TaskResponseMetadata","components":[{"name":"taskResponsedBlock","type":"uint32","internalType":"uint32"},{"name":"hashOfNonSigners","type":"bytes32","internalType":"bytes32"}]}],"anonymous":false},{"type":"event","name":"Unpaused","inputs":[{"name":"account","type":"address","indexed":true,"internalType":"address"},{"name":"newPausedStatus","type":"uint256","indexed":false,"internalType":"uint256"}],"anonymous":false}],"bytecode":{"object":"0x6101206040523480156200001257600080fd5b506040516200626c3803806200626c8339810160408190526200003591620001ea565b81806001600160a01b03166080816001600160a01b031681525050806001600160a01b031663683048356040518163ffffffff1660e01b8152600401602060405180830381865afa1580156200008f573d6000803e3d6000fd5b505050506040513d601f19601f82011682018060405250810190620000b5919062000231565b6001600160a01b031660a0816001600160a01b031681525050806001600160a01b0316635df459466040518163ffffffff1660e01b8152600401602060405180830381865afa1580156200010d573d6000803e3d6000fd5b505050506040513d601f19601f8201168201806040525081019062000133919062000231565b6001600160a01b031660c0816001600160a01b03168152505060a0516001600160a01b031663df5cf7236040518163ffffffff1660e01b8152600401602060405180830381865afa1580156200018d573d6000803e3d6000fd5b505050506040513d601f19601f82011682018060405250810190620001b3919062000231565b6001600160a01b031660e0525063ffffffff16610100525062000258565b6001600160a01b0381168114620001e757600080fd5b50565b60008060408385031215620001fe57600080fd5b82516200020b81620001d1565b602084015190925063ffffffff811681146200022657600080fd5b809150509250929050565b6000602082840312156200024457600080fd5b81516200025181620001d1565b9392505050565b60805160a05160c05160e05161010051615f82620002ea60003960008181610293015281816105f20152611ba50152600081816105bb0152612e3701526000818161047401528181612494015261301901526000818161049b015281816131ef01526133b10152600081816104e801528181610f7d01528181612b2101528181612c9a0152612ed40152615f826000f3fe608060405234801561001057600080fd5b50600436106102325760003560e01c806368304835116101305780638b00ce7c116100b8578063f2fde38b1161007c578063f2fde38b146105dd578063f5c9899d146105f0578063f63c5bab14610616578063f8c8765e1461061e578063fabc1cbc1461063157600080fd5b80638b00ce7c146105675780638da5cb5b14610577578063b98d090814610588578063cefdc1d414610595578063df5cf723146105b657600080fd5b80636efb4636116100ff5780636efb46361461050a578063715018a61461052b57806372d18e8d146105335780637afa1eed14610541578063886f11951461055457600080fd5b806368304835146104965780636b532e9e146104bd5780636b92787e146104d05780636d14a987146104e357600080fd5b8063416c7e5e116101be5780635baec9a0116101825780635baec9a0146104115780635c155662146104245780635c975abb146104445780635decc3f51461044c5780635df459461461046f57600080fd5b8063416c7e5e146103835780634d2b57fe146103965780634f739f74146103b6578063595c6a67146103d65780635ac86ab7146103de57600080fd5b8063245a7bfc11610205578063245a7bfc146102ca5780632cb223d5146102f55780632d89f6fc1461032357806331b36bd9146103435780633563b0d11461036357600080fd5b806310d67a2f14610237578063136439dd1461024c578063171f1d5b1461025f5780631ad431891461028e575b600080fd5b61024a610245366004614951565b610644565b005b61024a61025a36600461496e565b610700565b61027261026d366004614aec565b61083f565b6040805192151583529015156020830152015b60405180910390f35b6102b57f000000000000000000000000000000000000000000000000000000000000000081565b60405163ffffffff9091168152602001610285565b60cd546102dd906001600160a01b031681565b6040516001600160a01b039091168152602001610285565b610315610303366004614b5a565b60cb6020526000908152604090205481565b604051908152602001610285565b610315610331366004614b5a565b60ca6020526000908152604090205481565b610356610351366004614b9a565b6109c9565b6040516102859190614c88565b610376610371366004614ca2565b610ae5565b6040516102859190614dfd565b61024a610391366004614e1e565b610f7b565b6103a96103a4366004614ea1565b6110b2565b6040516102859190614ef0565b6103c96103c4366004614f85565b6111c7565b604051610285919061507e565b61024a6118ed565b6104016103ec366004615148565b606654600160ff9092169190911b9081161490565b6040519015158152602001610285565b61024a61041f366004615400565b6119b4565b610437610432366004615474565b611e33565b60405161028591906154d7565b606654610315565b61040161045a366004614b5a565b60cc6020526000908152604090205460ff1681565b6102dd7f000000000000000000000000000000000000000000000000000000000000000081565b6102dd7f000000000000000000000000000000000000000000000000000000000000000081565b61024a6104cb36600461550f565b611ffb565b61024a6104de366004615595565b6125cd565b6102dd7f000000000000000000000000000000000000000000000000000000000000000081565b61051d6105183660046155f0565b61276e565b6040516102859291906156b0565b61024a613666565b60c95463ffffffff166102b5565b60ce546102dd906001600160a01b031681565b6065546102dd906001600160a01b031681565b60c9546102b59063ffffffff1681565b6033546001600160a01b03166102dd565b6097546104019060ff1681565b6105a86105a33660046156f9565b61367a565b604051610285929190615730565b6102dd7f000000000000000000000000000000000000000000000000000000000000000081565b61024a6105eb366004614951565b61380c565b7f00000000000000000000000000000000000000000000000000000000000000006102b5565b6102b5606481565b61024a61062c366004615751565b613882565b61024a61063f36600461496e565b6139d3565b606560009054906101000a90046001600160a01b03166001600160a01b031663eab66d7a6040518163ffffffff1660e01b8152600401602060405180830381865afa158015610697573d6000803e3d6000fd5b505050506040513d601f19601f820116820180604052508101906106bb91906157ad565b6001600160a01b0316336001600160a01b0316146106f45760405162461bcd60e51b81526004016106eb906157ca565b60405180910390fd5b6106fd81613b2f565b50565b60655460405163237dfb4760e11b81523360048201526001600160a01b03909116906346fbf68e90602401602060405180830381865afa158015610748573d6000803e3d6000fd5b505050506040513d601f19601f8201168201806040525081019061076c9190615814565b6107885760405162461bcd60e51b81526004016106eb90615831565b606654818116146108015760405162461bcd60e51b815260206004820152603860248201527f5061757361626c652e70617573653a20696e76616c696420617474656d70742060448201527f746f20756e70617573652066756e6374696f6e616c697479000000000000000060648201526084016106eb565b606681905560405181815233907fab40a374bc51de372200a8bc981af8c9ecdc08dfdaef0bb6e09f88f3c616ef3d906020015b60405180910390a250565b60008060007f30644e72e131a029b85045b68181585d2833e84879b9709143e1f593f00000018787600001518860200151886000015160006002811061088757610887615879565b60200201518951600160200201518a602001516000600281106108ac576108ac615879565b60200201518b602001516001600281106108c8576108c8615879565b602090810291909101518c518d8301516040516109259a99989796959401988952602089019790975260408801959095526060870193909352608086019190915260a085015260c084015260e08301526101008201526101200190565b6040516020818303038152906040528051906020012060001c610948919061588f565b90506109bb61096161095a8884613c26565b8690613cbd565b610969613d51565b6109b16109a28561099c604080518082018252600080825260209182015281518083019092526001825260029082015290565b90613c26565b6109ab8c613e11565b90613cbd565b886201d4c0613ea1565b909890975095505050505050565b606081516001600160401b038111156109e4576109e4614987565b604051908082528060200260200182016040528015610a0d578160200160208202803683370190505b50905060005b8251811015610ade57836001600160a01b03166313542a4e848381518110610a3d57610a3d615879565b60200260200101516040518263ffffffff1660e01b8152600401610a7091906001600160a01b0391909116815260200190565b602060405180830381865afa158015610a8d573d6000803e3d6000fd5b505050506040513d601f19601f82011682018060405250810190610ab191906158b1565b828281518110610ac357610ac3615879565b6020908102919091010152610ad7816158e0565b9050610a13565b5092915050565b60606000846001600160a01b031663683048356040518163ffffffff1660e01b8152600401602060405180830381865afa158015610b27573d6000803e3d6000fd5b505050506040513d601f19601f82011682018060405250810190610b4b91906157ad565b90506000856001600160a01b0316639e9923c26040518163ffffffff1660e01b8152600401602060405180830381865afa158015610b8d573d6000803e3d6000fd5b505050506040513d601f19601f82011682018060405250810190610bb191906157ad565b90506000866001600160a01b0316635df459466040518163ffffffff1660e01b8152600401602060405180830381865afa158015610bf3573d6000803e3d6000fd5b505050506040513d601f19601f82011682018060405250810190610c1791906157ad565b9050600086516001600160401b03811115610c3457610c34614987565b604051908082528060200260200182016040528015610c6757816020015b6060815260200190600190039081610c525790505b50905060005b8751811015610f6f576000888281518110610c8a57610c8a615879565b0160200151604051638902624560e01b815260f89190911c6004820181905263ffffffff8a16602483015291506000906001600160a01b03871690638902624590604401600060405180830381865afa158015610ceb573d6000803e3d6000fd5b505050506040513d6000823e601f3d908101601f19168201604052610d1391908101906158fb565b905080516001600160401b03811115610d2e57610d2e614987565b604051908082528060200260200182016040528015610d7957816020015b6040805160608101825260008082526020808301829052928201528252600019909201910181610d4c5790505b50848481518110610d8c57610d8c615879565b602002602001018190525060005b8151811015610f59576040518060600160405280876001600160a01b03166347b314e8858581518110610dcf57610dcf615879565b60200260200101516040518263ffffffff1660e01b8152600401610df591815260200190565b602060405180830381865afa158015610e12573d6000803e3d6000fd5b505050506040513d601f19601f82011682018060405250810190610e3691906157ad565b6001600160a01b03168152602001838381518110610e5657610e56615879565b60200260200101518152602001896001600160a01b031663fa28c627858581518110610e8457610e84615879565b60209081029190910101516040516001600160e01b031960e084901b168152600481019190915260ff8816602482015263ffffffff8f166044820152606401602060405180830381865afa158015610ee0573d6000803e3d6000fd5b505050506040513d601f19601f82011682018060405250810190610f04919061598b565b6001600160601b0316815250858581518110610f2257610f22615879565b60200260200101518281518110610f3b57610f3b615879565b60200260200101819052508080610f51906158e0565b915050610d9a565b5050508080610f67906158e0565b915050610c6d565b50979650505050505050565b7f00000000000000000000000000000000000000000000000000000000000000006001600160a01b0316638da5cb5b6040518163ffffffff1660e01b8152600401602060405180830381865afa158015610fd9573d6000803e3d6000fd5b505050506040513d601f19601f82011682018060405250810190610ffd91906157ad565b6001600160a01b0316336001600160a01b0316146110a95760405162461bcd60e51b815260206004820152605c60248201527f424c535369676e6174757265436865636b65722e6f6e6c79436f6f7264696e6160448201527f746f724f776e65723a2063616c6c6572206973206e6f7420746865206f776e6560648201527f72206f6620746865207265676973747279436f6f7264696e61746f7200000000608482015260a4016106eb565b6106fd816140c5565b606081516001600160401b038111156110cd576110cd614987565b6040519080825280602002602001820160405280156110f6578160200160208202803683370190505b50905060005b8251811015610ade57836001600160a01b031663296bb06484838151811061112657611126615879565b60200260200101516040518263ffffffff1660e01b815260040161114c91815260200190565b602060405180830381865afa158015611169573d6000803e3d6000fd5b505050506040513d601f19601f8201168201806040525081019061118d91906157ad565b82828151811061119f5761119f615879565b6001600160a01b03909216602092830291909101909101526111c0816158e0565b90506110fc565b6111f26040518060800160405280606081526020016060815260200160608152602001606081525090565b6000876001600160a01b031663683048356040518163ffffffff1660e01b8152600401602060405180830381865afa158015611232573d6000803e3d6000fd5b505050506040513d601f19601f8201168201806040525081019061125691906157ad565b90506112836040518060800160405280606081526020016060815260200160608152602001606081525090565b6040516361c8a12f60e11b81526001600160a01b038a169063c391425e906112b3908b90899089906004016159b4565b600060405180830381865afa1580156112d0573d6000803e3d6000fd5b505050506040513d6000823e601f3d908101601f191682016040526112f891908101906159fe565b81526040516340e03a8160e11b81526001600160a01b038316906381c075029061132a908b908b908b90600401615ab5565b600060405180830381865afa158015611347573d6000803e3d6000fd5b505050506040513d6000823e601f3d908101601f1916820160405261136f91908101906159fe565b6040820152856001600160401b0381111561138c5761138c614987565b6040519080825280602002602001820160405280156113bf57816020015b60608152602001906001900390816113aa5790505b50606082015260005b60ff81168711156117fe576000856001600160401b038111156113ed576113ed614987565b604051908082528060200260200182016040528015611416578160200160208202803683370190505b5083606001518360ff168151811061143057611430615879565b602002602001018190525060005b868110156116fe5760008c6001600160a01b03166304ec63518a8a8581811061146957611469615879565b905060200201358e8860000151868151811061148757611487615879565b60200260200101516040518463ffffffff1660e01b81526004016114c49392919092835263ffffffff918216602084015216604082015260600190565b602060405180830381865afa1580156114e1573d6000803e3d6000fd5b505050506040513d601f19601f820116820180604052508101906115059190615ade565b90506001600160c01b0381166115a95760405162461bcd60e51b815260206004820152605c60248201527f4f70657261746f7253746174655265747269657665722e676574436865636b5360448201527f69676e617475726573496e64696365733a206f70657261746f72206d7573742060648201527f6265207265676973746572656420617420626c6f636b6e756d62657200000000608482015260a4016106eb565b8a8a8560ff168181106115be576115be615879565b6001600160c01b03841692013560f81c9190911c6001908116141590506116eb57856001600160a01b031663dd9846b98a8a8581811061160057611600615879565b905060200201358d8d8860ff1681811061161c5761161c615879565b6040516001600160e01b031960e087901b1681526004810194909452919091013560f81c60248301525063ffffffff8f166044820152606401602060405180830381865afa158015611672573d6000803e3d6000fd5b505050506040513d601f19601f820116820180604052508101906116969190615b07565b85606001518560ff16815181106116af576116af615879565b602002602001015184815181106116c8576116c8615879565b63ffffffff90921660209283029190910190910152826116e7816158e0565b9350505b50806116f6816158e0565b91505061143e565b506000816001600160401b0381111561171957611719614987565b604051908082528060200260200182016040528015611742578160200160208202803683370190505b50905060005b828110156117c35784606001518460ff168151811061176957611769615879565b6020026020010151818151811061178257611782615879565b602002602001015182828151811061179c5761179c615879565b63ffffffff90921660209283029190910190910152806117bb816158e0565b915050611748565b508084606001518460ff16815181106117de576117de615879565b6020026020010181905250505080806117f690615b24565b9150506113c8565b506000896001600160a01b0316635df459466040518163ffffffff1660e01b8152600401602060405180830381865afa15801561183f573d6000803e3d6000fd5b505050506040513d601f19601f8201168201806040525081019061186391906157ad565b60405163354952a360e21b81529091506001600160a01b0382169063d5254a8c90611896908b908b908e90600401615b44565b600060405180830381865afa1580156118b3573d6000803e3d6000fd5b505050506040513d6000823e601f3d908101601f191682016040526118db91908101906159fe565b60208301525098975050505050505050565b60655460405163237dfb4760e11b81523360048201526001600160a01b03909116906346fbf68e90602401602060405180830381865afa158015611935573d6000803e3d6000fd5b505050506040513d601f19601f820116820180604052508101906119599190615814565b6119755760405162461bcd60e51b81526004016106eb90615831565b600019606681905560405190815233907fab40a374bc51de372200a8bc981af8c9ecdc08dfdaef0bb6e09f88f3c616ef3d9060200160405180910390a2565b60cd546001600160a01b03163314611a0e5760405162461bcd60e51b815260206004820152601d60248201527f41676772656761746f72206d757374206265207468652063616c6c657200000060448201526064016106eb565b6000611a206040850160208601614b5a565b9050366000611a326040870187615b6e565b90925090506000611a496080880160608901614b5a565b905060ca6000611a5c6020890189614b5a565b63ffffffff1663ffffffff1681526020019081526020016000205487604051602001611a889190615bb4565b6040516020818303038152906040528051906020012014611b115760405162461bcd60e51b815260206004820152603d60248201527f737570706c696564207461736b20646f6573206e6f74206d617463682074686560448201527f206f6e65207265636f7264656420696e2074686520636f6e747261637400000060648201526084016106eb565b600060cb81611b2360208a018a614b5a565b63ffffffff1663ffffffff1681526020019081526020016000205414611ba05760405162461bcd60e51b815260206004820152602c60248201527f41676772656761746f722068617320616c726561647920726573706f6e64656460448201526b20746f20746865207461736b60a01b60648201526084016106eb565b611bca7f000000000000000000000000000000000000000000000000000000000000000085615c55565b63ffffffff164363ffffffff161115611c3b5760405162461bcd60e51b815260206004820152602d60248201527f41676772656761746f722068617320726573706f6e64656420746f207468652060448201526c7461736b20746f6f206c61746560981b60648201526084016106eb565b600086604051602001611c4e9190615c9b565b604051602081830303815290604052805190602001209050600080611c768387878a8c61276e565b9150915060005b85811015611d75578460ff1683602001518281518110611c9f57611c9f615879565b6020026020010151611cb19190615ca9565b6001600160601b0316606484600001518381518110611cd257611cd2615879565b60200260200101516001600160601b0316611ced9190615cd8565b1015611d63576040805162461bcd60e51b81526020600482015260248101919091527f5369676e61746f7269657320646f206e6f74206f776e206174206c656173742060448201527f7468726573686f6c642070657263656e74616765206f6620612071756f72756d60648201526084016106eb565b80611d6d816158e0565b915050611c7d565b5060408051808201825263ffffffff43168152602080820184905291519091611da2918c91849101615cf7565b6040516020818303038152906040528051906020012060cb60008c6000016020810190611dcf9190614b5a565b63ffffffff1663ffffffff168152602001908152602001600020819055507f349c1ee60e4e8972ee9dba642c1774543d5c4136879b7f4caaf04bf81a487a2a8a82604051611e1e929190615cf7565b60405180910390a15050505050505050505050565b60606000846001600160a01b031663c391425e84866040518363ffffffff1660e01b8152600401611e65929190615d23565b600060405180830381865afa158015611e82573d6000803e3d6000fd5b505050506040513d6000823e601f3d908101601f19168201604052611eaa91908101906159fe565b9050600084516001600160401b03811115611ec757611ec7614987565b604051908082528060200260200182016040528015611ef0578160200160208202803683370190505b50905060005b8551811015611ff157866001600160a01b03166304ec6351878381518110611f2057611f20615879565b602002602001015187868581518110611f3b57611f3b615879565b60200260200101516040518463ffffffff1660e01b8152600401611f789392919092835263ffffffff918216602084015216604082015260600190565b602060405180830381865afa158015611f95573d6000803e3d6000fd5b505050506040513d601f19601f82011682018060405250810190611fb99190615ade565b6001600160c01b0316828281518110611fd457611fd4615879565b602090810291909101015280611fe9816158e0565b915050611ef6565b5095945050505050565b600061200a6020850185614b5a565b63ffffffff8116600090815260cb602052604090205490915085359061207c5760405162461bcd60e51b815260206004820152602160248201527f5461736b206861736e2774206265656e20726573706f6e64656420746f2079656044820152601d60fa1b60648201526084016106eb565b848460405160200161208f929190615d42565b60408051601f19818403018152918152815160209283012063ffffffff8516600090815260cb9093529120541461212e5760405162461bcd60e51b815260206004820152603d60248201527f5461736b20726573706f6e736520646f6573206e6f74206d617463682074686560448201527f206f6e65207265636f7264656420696e2074686520636f6e747261637400000060648201526084016106eb565b63ffffffff8216600090815260cc602052604090205460ff16156121c65760405162461bcd60e51b815260206004820152604360248201527f54686520726573706f6e736520746f2074686973207461736b2068617320616c60448201527f7265616479206265656e206368616c6c656e676564207375636365737366756c606482015262363c9760e91b608482015260a4016106eb565b60646121d56020860186614b5a565b6121df9190615c55565b63ffffffff164363ffffffff1611156122605760405162461bcd60e51b815260206004820152603760248201527f546865206368616c6c656e676520706572696f6420666f72207468697320746160448201527f736b2068617320616c726561647920657870697265642e00000000000000000060648201526084016106eb565b600061226c8280615cd8565b90506020860135811460018114156122ba57604051339063ffffffff8616907ffd3e26beeb5967fc5a57a0446914eabc45b4aa474c67a51b4b5160cac60ddb0590600090a3505050506125c7565b600085516001600160401b038111156122d5576122d5614987565b6040519080825280602002602001820160405280156122fe578160200160208202803683370190505b50905060005b86518110156123705761234187828151811061232257612322615879565b6020026020010151805160009081526020918201519091526040902090565b82828151811061235357612353615879565b602090810291909101015280612368816158e0565b915050612304565b50600061238360408b0160208c01614b5a565b82604051602001612395929190615d78565b6040516020818303038152906040528051906020012090508760200135811461243f5760405162461bcd60e51b815260206004820152605060248201527f546865207075626b657973206f66206e6f6e2d7369676e696e67206f7065726160448201527f746f727320737570706c69656420627920746865206368616c6c656e6765722060648201526f30b932903737ba1031b7b93932b1ba1760811b608482015260a4016106eb565b600087516001600160401b0381111561245a5761245a614987565b604051908082528060200260200182016040528015612483578160200160208202803683370190505b50905060005b8851811015612576577f00000000000000000000000000000000000000000000000000000000000000006001600160a01b031663e8bb9ae68583815181106124d3576124d3615879565b60200260200101516040518263ffffffff1660e01b81526004016124f991815260200190565b602060405180830381865afa158015612516573d6000803e3d6000fd5b505050506040513d601f19601f8201168201806040525081019061253a91906157ad565b82828151811061254c5761254c615879565b6001600160a01b03909216602092830291909101909101528061256e816158e0565b915050612489565b5063ffffffff8716600081815260cc6020526040808220805460ff19166001179055513392917fc20d1bb0f1623680306b83d4ff4bb99a2beb9d86d97832f3ca40fd13a29df1ec91a3505050505050505b50505050565b60ce546001600160a01b031633146126315760405162461bcd60e51b815260206004820152602160248201527f5461736b2067656e657261746f72206d757374206265207468652063616c6c656044820152603960f91b60648201526084016106eb565b612668604051806080016040528060008152602001600063ffffffff16815260200160608152602001600063ffffffff1681525090565b84815263ffffffff438116602080840191909152908516606083015260408051601f8501839004830281018301909152838152908490849081908401838280828437600092019190915250505050604080830191909152516126ce908290602001615dc0565b60408051601f19818403018152828252805160209182012060c9805463ffffffff908116600090815260ca90945293909220555416907f1695b8d06ec800b4615e745cfb5bd00c1f2875615d42925c3b5afa543bb24c4890612731908490615dc0565b60405180910390a260c95461274d9063ffffffff166001615c55565b60c9805463ffffffff191663ffffffff929092169190911790555050505050565b60408051808201909152606080825260208201526000846127e55760405162461bcd60e51b81526020600482015260376024820152600080516020615f2d83398151915260448201527f7265733a20656d7074792071756f72756d20696e70757400000000000000000060648201526084016106eb565b604083015151851480156127fd575060a08301515185145b801561280d575060c08301515185145b801561281d575060e08301515185145b6128875760405162461bcd60e51b81526020600482015260416024820152600080516020615f2d83398151915260448201527f7265733a20696e7075742071756f72756d206c656e677468206d69736d6174636064820152600d60fb1b608482015260a4016106eb565b825151602084015151146128ff5760405162461bcd60e51b815260206004820152604460248201819052600080516020615f2d833981519152908201527f7265733a20696e707574206e6f6e7369676e6572206c656e677468206d69736d6064820152630c2e8c6d60e31b608482015260a4016106eb565b4363ffffffff168463ffffffff161061296e5760405162461bcd60e51b815260206004820152603c6024820152600080516020615f2d83398151915260448201527f7265733a20696e76616c6964207265666572656e636520626c6f636b0000000060648201526084016106eb565b6040805180820182526000808252602080830191909152825180840190935260608084529083015290866001600160401b038111156129af576129af614987565b6040519080825280602002602001820160405280156129d8578160200160208202803683370190505b506020820152866001600160401b038111156129f6576129f6614987565b604051908082528060200260200182016040528015612a1f578160200160208202803683370190505b50815260408051808201909152606080825260208201528560200151516001600160401b03811115612a5357612a53614987565b604051908082528060200260200182016040528015612a7c578160200160208202803683370190505b5081526020860151516001600160401b03811115612a9c57612a9c614987565b604051908082528060200260200182016040528015612ac5578160200160208202803683370190505b5081602001819052506000612b978a8a8080601f0160208091040260200160405190810160405280939291908181526020018383808284376000920191909152505060408051639aa1653d60e01b815290516001600160a01b037f0000000000000000000000000000000000000000000000000000000000000000169350639aa1653d925060048083019260209291908290030181865afa158015612b6e573d6000803e3d6000fd5b505050506040513d601f19601f82011682018060405250810190612b929190615e4b565b61410c565b905060005b876020015151811015612e1357612bc28860200151828151811061232257612322615879565b83602001518281518110612bd857612bd8615879565b60209081029190910101528015612c98576020830151612bf9600183615e68565b81518110612c0957612c09615879565b602002602001015160001c83602001518281518110612c2a57612c2a615879565b602002602001015160001c11612c98576040805162461bcd60e51b8152602060048201526024810191909152600080516020615f2d83398151915260448201527f7265733a206e6f6e5369676e65725075626b657973206e6f7420736f7274656460648201526084016106eb565b7f00000000000000000000000000000000000000000000000000000000000000006001600160a01b03166304ec635184602001518381518110612cdd57612cdd615879565b60200260200101518b8b600001518581518110612cfc57612cfc615879565b60200260200101516040518463ffffffff1660e01b8152600401612d399392919092835263ffffffff918216602084015216604082015260600190565b602060405180830381865afa158015612d56573d6000803e3d6000fd5b505050506040513d601f19601f82011682018060405250810190612d7a9190615ade565b6001600160c01b031683600001518281518110612d9957612d99615879565b602002602001018181525050612dff61095a612dd38486600001518581518110612dc557612dc5615879565b60200260200101511661419f565b8a602001518481518110612de957612de9615879565b60200260200101516141ca90919063ffffffff16565b945080612e0b816158e0565b915050612b9c565b5050612e1e836142ae565b60975490935060ff16600081612e35576000612eb7565b7f00000000000000000000000000000000000000000000000000000000000000006001600160a01b031663c448feb86040518163ffffffff1660e01b8152600401602060405180830381865afa158015612e93573d6000803e3d6000fd5b505050506040513d601f19601f82011682018060405250810190612eb791906158b1565b905060005b8a811015613535578215613017578963ffffffff16827f00000000000000000000000000000000000000000000000000000000000000006001600160a01b031663249a0c428f8f86818110612f1357612f13615879565b60405160e085901b6001600160e01b031916815292013560f81c600483015250602401602060405180830381865afa158015612f53573d6000803e3d6000fd5b505050506040513d601f19601f82011682018060405250810190612f7791906158b1565b612f819190615e7f565b116130175760405162461bcd60e51b81526020600482015260666024820152600080516020615f2d83398151915260448201527f7265733a205374616b6552656769737472792075706461746573206d7573742060648201527f62652077697468696e207769746864726177616c44656c6179426c6f636b732060848201526577696e646f7760d01b60a482015260c4016106eb565b7f00000000000000000000000000000000000000000000000000000000000000006001600160a01b03166368bccaac8d8d8481811061305857613058615879565b9050013560f81c60f81b60f81c8c8c60a00151858151811061307c5761307c615879565b60209081029190910101516040516001600160e01b031960e086901b16815260ff909316600484015263ffffffff9182166024840152166044820152606401602060405180830381865afa1580156130d8573d6000803e3d6000fd5b505050506040513d601f19601f820116820180604052508101906130fc9190615e97565b6001600160401b03191661311f8a60400151838151811061232257612322615879565b67ffffffffffffffff1916146131bb5760405162461bcd60e51b81526020600482015260616024820152600080516020615f2d83398151915260448201527f7265733a2071756f72756d41706b206861736820696e2073746f72616765206460648201527f6f6573206e6f74206d617463682070726f76696465642071756f72756d2061706084820152606b60f81b60a482015260c4016106eb565b6131eb896040015182815181106131d4576131d4615879565b602002602001015187613cbd90919063ffffffff16565b95507f00000000000000000000000000000000000000000000000000000000000000006001600160a01b031663c8294c568d8d8481811061322e5761322e615879565b9050013560f81c60f81b60f81c8c8c60c00151858151811061325257613252615879565b60209081029190910101516040516001600160e01b031960e086901b16815260ff909316600484015263ffffffff9182166024840152166044820152606401602060405180830381865afa1580156132ae573d6000803e3d6000fd5b505050506040513d601f19601f820116820180604052508101906132d2919061598b565b856020015182815181106132e8576132e8615879565b6001600160601b0390921660209283029190910182015285015180518290811061331457613314615879565b60200260200101518560000151828151811061333257613332615879565b60200260200101906001600160601b031690816001600160601b0316815250506000805b8a6020015151811015613520576133aa8660000151828151811061337c5761337c615879565b60200260200101518f8f8681811061339657613396615879565b600192013560f81c9290921c811614919050565b1561350e577f00000000000000000000000000000000000000000000000000000000000000006001600160a01b031663f2be94ae8f8f868181106133f0576133f0615879565b9050013560f81c60f81b60f81c8e8960200151858151811061341457613414615879565b60200260200101518f60e00151888151811061343257613432615879565b6020026020010151878151811061344b5761344b615879565b60209081029190910101516040516001600160e01b031960e087901b16815260ff909416600485015263ffffffff92831660248501526044840191909152166064820152608401602060405180830381865afa1580156134af573d6000803e3d6000fd5b505050506040513d601f19601f820116820180604052508101906134d3919061598b565b87518051859081106134e7576134e7615879565b602002602001018181516134fb9190615ec2565b6001600160601b03169052506001909101905b80613518816158e0565b915050613356565b5050808061352d906158e0565b915050612ebc565b50505060008061354f8c868a606001518b6080015161083f565b91509150816135c05760405162461bcd60e51b81526020600482015260436024820152600080516020615f2d83398151915260448201527f7265733a2070616972696e6720707265636f6d70696c652063616c6c206661696064820152621b195960ea1b608482015260a4016106eb565b806136215760405162461bcd60e51b81526020600482015260396024820152600080516020615f2d83398151915260448201527f7265733a207369676e617475726520697320696e76616c69640000000000000060648201526084016106eb565b5050600087826020015160405160200161363c929190615d78565b60408051808303601f190181529190528051602090910120929b929a509198505050505050505050565b61366e614349565b61367860006143a3565b565b60408051600180825281830190925260009160609183916020808301908036833701905050905084816000815181106136b5576136b5615879565b60209081029190910101526040516361c8a12f60e11b81526000906001600160a01b0388169063c391425e906136f19088908690600401615d23565b600060405180830381865afa15801561370e573d6000803e3d6000fd5b505050506040513d6000823e601f3d908101601f1916820160405261373691908101906159fe565b60008151811061374857613748615879565b60209081029190910101516040516304ec635160e01b81526004810188905263ffffffff87811660248301529091166044820181905291506000906001600160a01b038916906304ec635190606401602060405180830381865afa1580156137b4573d6000803e3d6000fd5b505050506040513d601f19601f820116820180604052508101906137d89190615ade565b6001600160c01b0316905060006137ee826143f5565b9050816137fc8a838a610ae5565b9550955050505050935093915050565b613814614349565b6001600160a01b0381166138795760405162461bcd60e51b815260206004820152602660248201527f4f776e61626c653a206e6577206f776e657220697320746865207a65726f206160448201526564647265737360d01b60648201526084016106eb565b6106fd816143a3565b600054610100900460ff16158080156138a25750600054600160ff909116105b806138bc5750303b1580156138bc575060005460ff166001145b61391f5760405162461bcd60e51b815260206004820152602e60248201527f496e697469616c697a61626c653a20636f6e747261637420697320616c72656160448201526d191e481a5b9a5d1a585b1a5e995960921b60648201526084016106eb565b6000805460ff191660011790558015613942576000805461ff0019166101001790555b61394d8560006144c1565b613956846143a3565b60cd80546001600160a01b038086166001600160a01b03199283161790925560ce80549285169290911691909117905580156139cc576000805461ff0019169055604051600181527f7f26b83ff96e1f2b6a682f133852f6798a09c465da95921460cefb38474024989060200160405180910390a15b5050505050565b606560009054906101000a90046001600160a01b03166001600160a01b031663eab66d7a6040518163ffffffff1660e01b8152600401602060405180830381865afa158015613a26573d6000803e3d6000fd5b505050506040513d601f19601f82011682018060405250810190613a4a91906157ad565b6001600160a01b0316336001600160a01b031614613a7a5760405162461bcd60e51b81526004016106eb906157ca565b606654198119606654191614613af85760405162461bcd60e51b815260206004820152603860248201527f5061757361626c652e756e70617573653a20696e76616c696420617474656d7060448201527f7420746f2070617573652066756e6374696f6e616c697479000000000000000060648201526084016106eb565b606681905560405181815233907f3582d1828e26bf56bd801502bc021ac0bc8afb57c826e4986b45593c8fad389c90602001610834565b6001600160a01b038116613bbd5760405162461bcd60e51b815260206004820152604960248201527f5061757361626c652e5f73657450617573657252656769737472793a206e657760448201527f50617573657252656769737472792063616e6e6f7420626520746865207a65726064820152686f206164647265737360b81b608482015260a4016106eb565b606554604080516001600160a01b03928316815291831660208301527f6e9fcd539896fca60e8b0f01dd580233e48a6b0f7df013b89ba7f565869acdb6910160405180910390a1606580546001600160a01b0319166001600160a01b0392909216919091179055565b6040805180820190915260008082526020820152613c42614862565b835181526020808501519082015260408082018490526000908360608460076107d05a03fa9050808015613c7557613c77565bfe5b5080613cb55760405162461bcd60e51b815260206004820152600d60248201526c1958cb5b5d5b0b59985a5b1959609a1b60448201526064016106eb565b505092915050565b6040805180820190915260008082526020820152613cd9614880565b835181526020808501518183015283516040808401919091529084015160608301526000908360808460066107d05a03fa9050808015613c75575080613cb55760405162461bcd60e51b815260206004820152600d60248201526c1958cb5859190b59985a5b1959609a1b60448201526064016106eb565b613d5961489e565b50604080516080810182527f198e9393920d483a7260bfb731fb5d25f1aa493335a9e71297e485b7aef312c28183019081527f1800deef121f1e76426a00665e5c4479674322d4f75edadd46debd5cd992f6ed6060830152815281518083019092527f275dc4a288d1afb3cbb1ac09187524c7db36395df7be3b99e673b13a075a65ec82527f1d9befcd05a5323e6da4d435f3b617cdb3af83285c2df711ef39c01571827f9d60208381019190915281019190915290565b604080518082019091526000808252602082015260008080613e41600080516020615f0d8339815191528661588f565b90505b613e4d816145ab565b9093509150600080516020615f0d833981519152828309831415613e87576040805180820190915290815260208101919091529392505050565b600080516020615f0d833981519152600182089050613e44565b604080518082018252868152602080820186905282518084019093528683528201849052600091829190613ed36148c3565b60005b6002811015614098576000613eec826006615cd8565b9050848260028110613f0057613f00615879565b60200201515183613f12836000615e7f565b600c8110613f2257613f22615879565b6020020152848260028110613f3957613f39615879565b60200201516020015183826001613f509190615e7f565b600c8110613f6057613f60615879565b6020020152838260028110613f7757613f77615879565b6020020151515183613f8a836002615e7f565b600c8110613f9a57613f9a615879565b6020020152838260028110613fb157613fb1615879565b6020020151516001602002015183613fca836003615e7f565b600c8110613fda57613fda615879565b6020020152838260028110613ff157613ff1615879565b60200201516020015160006002811061400c5761400c615879565b60200201518361401d836004615e7f565b600c811061402d5761402d615879565b602002015283826002811061404457614044615879565b60200201516020015160016002811061405f5761405f615879565b602002015183614070836005615e7f565b600c811061408057614080615879565b60200201525080614090816158e0565b915050613ed6565b506140a16148e2565b60006020826101808560088cfa9151919c9115159b50909950505050505050505050565b6097805460ff19168215159081179091556040519081527f40e4ed880a29e0f6ddce307457fb75cddf4feef7d3ecb0301bfdf4976a0e2dfc9060200160405180910390a150565b6000806141188461462d565b9050808360ff166001901b116141965760405162461bcd60e51b815260206004820152603f60248201527f4269746d61705574696c732e6f72646572656442797465734172726179546f4260448201527f69746d61703a206269746d61702065786365656473206d61782076616c75650060648201526084016106eb565b90505b92915050565b6000805b8215614199576141b4600184615e68565b90921691806141c281615eea565b9150506141a3565b60408051808201909152600080825260208201526102008261ffff16106142265760405162461bcd60e51b815260206004820152601060248201526f7363616c61722d746f6f2d6c6172676560801b60448201526064016106eb565b8161ffff166001141561423a575081614199565b6040805180820190915260008082526020820181905284906001905b8161ffff168661ffff16106142a357600161ffff871660ff83161c81161415614286576142838484613cbd565b93505b6142908384613cbd565b92506201fffe600192831b169101614256565b509195945050505050565b604080518082019091526000808252602082015281511580156142d357506020820151155b156142f1575050604080518082019091526000808252602082015290565b604051806040016040528083600001518152602001600080516020615f0d8339815191528460200151614324919061588f565b61433c90600080516020615f0d833981519152615e68565b905292915050565b919050565b6033546001600160a01b031633146136785760405162461bcd60e51b815260206004820181905260248201527f4f776e61626c653a2063616c6c6572206973206e6f7420746865206f776e657260448201526064016106eb565b603380546001600160a01b038381166001600160a01b0319831681179093556040519116919082907f8be0079c531659141344cd1fd0a4f28419497f9722a3daafe3b4186f6b6457e090600090a35050565b60606000806144038461419f565b61ffff166001600160401b0381111561441e5761441e614987565b6040519080825280601f01601f191660200182016040528015614448576020820181803683370190505b5090506000805b825182108015614460575061010081105b156144b7576001811b9350858416156144a7578060f81b83838151811061448957614489615879565b60200101906001600160f81b031916908160001a9053508160010191505b6144b0816158e0565b905061444f565b5090949350505050565b6065546001600160a01b03161580156144e257506001600160a01b03821615155b6145645760405162461bcd60e51b815260206004820152604760248201527f5061757361626c652e5f696e697469616c697a655061757365723a205f696e6960448201527f7469616c697a6550617573657228292063616e206f6e6c792062652063616c6c6064820152666564206f6e636560c81b608482015260a4016106eb565b606681905560405181815233907fab40a374bc51de372200a8bc981af8c9ecdc08dfdaef0bb6e09f88f3c616ef3d9060200160405180910390a26145a782613b2f565b5050565b60008080600080516020615f0d8339815191526003600080516020615f0d83398151915286600080516020615f0d833981519152888909090890506000614621827f0c19139cb84c680a6e14116da060561765e05aa45a1c72a34f082305b61f3f52600080516020615f0d8339815191526147ba565b91959194509092505050565b6000610100825111156146b65760405162461bcd60e51b8152602060048201526044602482018190527f4269746d61705574696c732e6f72646572656442797465734172726179546f42908201527f69746d61703a206f7264657265644279746573417272617920697320746f6f206064820152636c6f6e6760e01b608482015260a4016106eb565b81516146c457506000919050565b600080836000815181106146da576146da615879565b0160200151600160f89190911c81901b92505b84518110156147b15784818151811061470857614708615879565b0160200151600160f89190911c1b915082821161479d5760405162461bcd60e51b815260206004820152604760248201527f4269746d61705574696c732e6f72646572656442797465734172726179546f4260448201527f69746d61703a206f72646572656442797465734172726179206973206e6f74206064820152661bdc99195c995960ca1b608482015260a4016106eb565b918117916147aa816158e0565b90506146ed565b50909392505050565b6000806147c56148e2565b6147cd614900565b602080825281810181905260408201819052606082018890526080820187905260a082018690528260c08360056107d05a03fa9250828015613c755750826148575760405162461bcd60e51b815260206004820152601a60248201527f424e3235342e6578704d6f643a2063616c6c206661696c75726500000000000060448201526064016106eb565b505195945050505050565b60405180606001604052806003906020820280368337509192915050565b60405180608001604052806004906020820280368337509192915050565b60405180604001604052806148b161491e565b81526020016148be61491e565b905290565b604051806101800160405280600c906020820280368337509192915050565b60405180602001604052806001906020820280368337509192915050565b6040518060c001604052806006906020820280368337509192915050565b60405180604001604052806002906020820280368337509192915050565b6001600160a01b03811681146106fd57600080fd5b60006020828403121561496357600080fd5b81356141968161493c565b60006020828403121561498057600080fd5b5035919050565b634e487b7160e01b600052604160045260246000fd5b604080519081016001600160401b03811182821017156149bf576149bf614987565b60405290565b60405161010081016001600160401b03811182821017156149bf576149bf614987565b604051601f8201601f191681016001600160401b0381118282101715614a1057614a10614987565b604052919050565b600060408284031215614a2a57600080fd5b614a3261499d565b9050813581526020820135602082015292915050565b600082601f830112614a5957600080fd5b604051604081018181106001600160401b0382111715614a7b57614a7b614987565b8060405250806040840185811115614a9257600080fd5b845b818110156142a3578035835260209283019201614a94565b600060808284031215614abe57600080fd5b614ac661499d565b9050614ad28383614a48565b8152614ae18360408401614a48565b602082015292915050565b6000806000806101208587031215614b0357600080fd5b84359350614b148660208701614a18565b9250614b238660608701614aac565b9150614b328660e08701614a18565b905092959194509250565b63ffffffff811681146106fd57600080fd5b803561434481614b3d565b600060208284031215614b6c57600080fd5b813561419681614b3d565b60006001600160401b03821115614b9057614b90614987565b5060051b60200190565b60008060408385031215614bad57600080fd5b8235614bb88161493c565b91506020838101356001600160401b03811115614bd457600080fd5b8401601f81018613614be557600080fd5b8035614bf8614bf382614b77565b6149e8565b81815260059190911b82018301908381019088831115614c1757600080fd5b928401925b82841015614c3e578335614c2f8161493c565b82529284019290840190614c1c565b80955050505050509250929050565b600081518084526020808501945080840160005b83811015614c7d57815187529582019590820190600101614c61565b509495945050505050565b602081526000614c9b6020830184614c4d565b9392505050565b600080600060608486031215614cb757600080fd5b8335614cc28161493c565b92506020848101356001600160401b0380821115614cdf57600080fd5b818701915087601f830112614cf357600080fd5b813581811115614d0557614d05614987565b614d17601f8201601f191685016149e8565b91508082528884828501011115614d2d57600080fd5b8084840185840137600084828401015250809450505050614d5060408501614b4f565b90509250925092565b600081518084526020808501808196508360051b810191508286016000805b86811015614def578385038a52825180518087529087019087870190845b81811015614dda57835180516001600160a01b031684528a8101518b8501526040908101516001600160601b03169084015292890192606090920191600101614d96565b50509a87019a95505091850191600101614d78565b509298975050505050505050565b602081526000614c9b6020830184614d59565b80151581146106fd57600080fd5b600060208284031215614e3057600080fd5b813561419681614e10565b600082601f830112614e4c57600080fd5b81356020614e5c614bf383614b77565b82815260059290921b84018101918181019086841115614e7b57600080fd5b8286015b84811015614e965780358352918301918301614e7f565b509695505050505050565b60008060408385031215614eb457600080fd5b8235614ebf8161493c565b915060208301356001600160401b03811115614eda57600080fd5b614ee685828601614e3b565b9150509250929050565b6020808252825182820181905260009190848201906040850190845b81811015614f315783516001600160a01b031683529284019291840191600101614f0c565b50909695505050505050565b60008083601f840112614f4f57600080fd5b5081356001600160401b03811115614f6657600080fd5b602083019150836020828501011115614f7e57600080fd5b9250929050565b60008060008060008060808789031215614f9e57600080fd5b8635614fa98161493c565b95506020870135614fb981614b3d565b945060408701356001600160401b0380821115614fd557600080fd5b614fe18a838b01614f3d565b90965094506060890135915080821115614ffa57600080fd5b818901915089601f83011261500e57600080fd5b81358181111561501d57600080fd5b8a60208260051b850101111561503257600080fd5b6020830194508093505050509295509295509295565b600081518084526020808501945080840160005b83811015614c7d57815163ffffffff168752958201959082019060010161505c565b60006020808352835160808285015261509a60a0850182615048565b905081850151601f19808684030160408701526150b78383615048565b925060408701519150808684030160608701526150d48383615048565b60608801518782038301608089015280518083529194508501925084840190600581901b8501860160005b8281101561512b5784878303018452615119828751615048565b958801959388019391506001016150ff565b509998505050505050505050565b60ff811681146106fd57600080fd5b60006020828403121561515a57600080fd5b813561419681615139565b60006080828403121561517757600080fd5b50919050565b60006040828403121561517757600080fd5b600082601f8301126151a057600080fd5b813560206151b0614bf383614b77565b82815260059290921b840181019181810190868411156151cf57600080fd5b8286015b84811015614e965780356151e681614b3d565b83529183019183016151d3565b600082601f83011261520457600080fd5b81356020615214614bf383614b77565b82815260069290921b8401810191818101908684111561523357600080fd5b8286015b84811015614e96576152498882614a18565b835291830191604001615237565b600082601f83011261526857600080fd5b81356020615278614bf383614b77565b82815260059290921b8401810191818101908684111561529757600080fd5b8286015b84811015614e965780356001600160401b038111156152ba5760008081fd5b6152c88986838b010161518f565b84525091830191830161529b565b600061018082840312156152e957600080fd5b6152f16149c5565b905081356001600160401b038082111561530a57600080fd5b6153168583860161518f565b8352602084013591508082111561532c57600080fd5b615338858386016151f3565b6020840152604084013591508082111561535157600080fd5b61535d858386016151f3565b604084015261536f8560608601614aac565b60608401526153818560e08601614a18565b608084015261012084013591508082111561539b57600080fd5b6153a78583860161518f565b60a08401526101408401359150808211156153c157600080fd5b6153cd8583860161518f565b60c08401526101608401359150808211156153e757600080fd5b506153f484828501615257565b60e08301525092915050565b60008060006080848603121561541557600080fd5b83356001600160401b038082111561542c57600080fd5b61543887838801615165565b9450615447876020880161517d565b9350606086013591508082111561545d57600080fd5b5061546a868287016152d6565b9150509250925092565b60008060006060848603121561548957600080fd5b83356154948161493c565b925060208401356001600160401b038111156154af57600080fd5b6154bb86828701614e3b565b92505060408401356154cc81614b3d565b809150509250925092565b6020808252825182820181905260009190848201906040850190845b81811015614f31578351835292840192918401916001016154f3565b60008060008060c0858703121561552557600080fd5b84356001600160401b038082111561553c57600080fd5b61554888838901615165565b9550615557886020890161517d565b9450615566886060890161517d565b935060a087013591508082111561557c57600080fd5b50615589878288016151f3565b91505092959194509250565b600080600080606085870312156155ab57600080fd5b8435935060208501356155bd81614b3d565b925060408501356001600160401b038111156155d857600080fd5b6155e487828801614f3d565b95989497509550505050565b60008060008060006080868803121561560857600080fd5b8535945060208601356001600160401b038082111561562657600080fd5b61563289838a01614f3d565b90965094506040880135915061564782614b3d565b9092506060870135908082111561565d57600080fd5b5061566a888289016152d6565b9150509295509295909350565b600081518084526020808501945080840160005b83811015614c7d5781516001600160601b03168752958201959082019060010161568b565b60408152600083516040808401526156cb6080840182615677565b90506020850151603f198483030160608501526156e88282615677565b925050508260208301529392505050565b60008060006060848603121561570e57600080fd5b83356157198161493c565b92506020840135915060408401356154cc81614b3d565b8281526040602082015260006157496040830184614d59565b949350505050565b6000806000806080858703121561576757600080fd5b84356157728161493c565b935060208501356157828161493c565b925060408501356157928161493c565b915060608501356157a28161493c565b939692955090935050565b6000602082840312156157bf57600080fd5b81516141968161493c565b6020808252602a908201527f6d73672e73656e646572206973206e6f74207065726d697373696f6e6564206160408201526939903ab73830bab9b2b960b11b606082015260800190565b60006020828403121561582657600080fd5b815161419681614e10565b60208082526028908201527f6d73672e73656e646572206973206e6f74207065726d697373696f6e6564206160408201526739903830bab9b2b960c11b606082015260800190565b634e487b7160e01b600052603260045260246000fd5b6000826158ac57634e487b7160e01b600052601260045260246000fd5b500690565b6000602082840312156158c357600080fd5b5051919050565b634e487b7160e01b600052601160045260246000fd5b60006000198214156158f4576158f46158ca565b5060010190565b6000602080838503121561590e57600080fd5b82516001600160401b0381111561592457600080fd5b8301601f8101851361593557600080fd5b8051615943614bf382614b77565b81815260059190911b8201830190838101908783111561596257600080fd5b928401925b8284101561598057835182529284019290840190615967565b979650505050505050565b60006020828403121561599d57600080fd5b81516001600160601b038116811461419657600080fd5b63ffffffff84168152604060208201819052810182905260006001600160fb1b038311156159e157600080fd5b8260051b8085606085013760009201606001918252509392505050565b60006020808385031215615a1157600080fd5b82516001600160401b03811115615a2757600080fd5b8301601f81018513615a3857600080fd5b8051615a46614bf382614b77565b81815260059190911b82018301908381019087831115615a6557600080fd5b928401925b82841015615980578351615a7d81614b3d565b82529284019290840190615a6a565b81835281816020850137506000828201602090810191909152601f909101601f19169091010190565b63ffffffff84168152604060208201526000615ad5604083018486615a8c565b95945050505050565b600060208284031215615af057600080fd5b81516001600160c01b038116811461419657600080fd5b600060208284031215615b1957600080fd5b815161419681614b3d565b600060ff821660ff811415615b3b57615b3b6158ca565b60010192915050565b604081526000615b58604083018587615a8c565b905063ffffffff83166020830152949350505050565b6000808335601e19843603018112615b8557600080fd5b8301803591506001600160401b03821115615b9f57600080fd5b602001915036819003821315614f7e57600080fd5b602081528135602082015260006020830135615bcf81614b3d565b63ffffffff81166040840152506040830135601e19843603018112615bf357600080fd5b830180356001600160401b03811115615c0b57600080fd5b803603851315615c1a57600080fd5b60806060850152615c3260a085018260208501615a8c565b915050615c4160608501614b4f565b63ffffffff81166080850152509392505050565b600063ffffffff808316818516808303821115615c7457615c746158ca565b01949350505050565b8035615c8881614b3d565b63ffffffff168252602090810135910152565b604081016141998284615c7d565b60006001600160601b0380831681851681830481118215151615615ccf57615ccf6158ca565b02949350505050565b6000816000190483118215151615615cf257615cf26158ca565b500290565b60808101615d058285615c7d565b63ffffffff8351166040830152602083015160608301529392505050565b63ffffffff831681526040602082015260006157496040830184614c4d565b60808101615d508285615c7d565b8235615d5b81614b3d565b63ffffffff16604083015260209290920135606090910152919050565b63ffffffff60e01b8360e01b1681526000600482018351602080860160005b83811015615db357815185529382019390820190600101615d97565b5092979650505050505050565b6000602080835283518184015263ffffffff8185015116604084015260408401516080606085015280518060a086015260005b81811015615e0f5782810184015186820160c001528301615df3565b81811115615e2157600060c083880101525b50606086015163ffffffff811660808701529250601f01601f19169390930160c001949350505050565b600060208284031215615e5d57600080fd5b815161419681615139565b600082821015615e7a57615e7a6158ca565b500390565b60008219821115615e9257615e926158ca565b500190565b600060208284031215615ea957600080fd5b815167ffffffffffffffff198116811461419657600080fd5b60006001600160601b0383811690831681811015615ee257615ee26158ca565b039392505050565b600061ffff80831681811415615f0257615f026158ca565b600101939250505056fe30644e72e131a029b85045b68181585d97816a916871ca8d3c208c16d87cfd47424c535369676e6174757265436865636b65722e636865636b5369676e617475a2646970667358221220628cd6cf311a69e8a95f4d6d8de29902acf1f760b345aeb4ef3b6e5032aa480664736f6c634300080c0033","linkReferences":{}},"methodIdentifiers":{"TASK_CHALLENGE_WINDOW_BLOCK()":"f63c5bab","TASK_RESPONSE_WINDOW_BLOCK()":"1ad43189","aggregator()":"245a7bfc","allTaskHashes(uint32)":"2d89f6fc","allTaskResponses(uint32)":"2cb223d5","blsApkRegistry()":"5df45946","checkSignatures(bytes32,bytes,uint32,(uint32[],(uint256,uint256)[],(uint256,uint256)[],(uint256[2],uint256[2]),(uint256,uint256),uint32[],uint32[],uint32[][]))":"6efb4636","createNewTask(uint256,uint32,bytes)":"6b92787e","delegation()":"df5cf723","generator()":"7afa1eed","getBatchOperatorFromId(address,bytes32[])":"4d2b57fe","getBatchOperatorId(address,address[])":"31b36bd9","getCheckSignaturesIndices(address,uint32,bytes,bytes32[])":"4f739f74","getOperatorState(address,bytes,uint32)":"3563b0d1","getOperatorState(address,bytes32,uint32)":"cefdc1d4","getQuorumBitmapsAtBlockNumber(address,bytes32[],uint32)":"5c155662","getTaskResponseWindowBlock()":"f5c9899d","initialize(address,address,address,address)":"f8c8765e","latestTaskNum()":"8b00ce7c","owner()":"8da5cb5b","pause(uint256)":"136439dd","pauseAll()":"595c6a67","paused()":"5c975abb","paused(uint8)":"5ac86ab7","pauserRegistry()":"886f1195","raiseAndResolveChallenge((uint256,uint32,bytes,uint32),(uint32,uint256),(uint32,bytes32),(uint256,uint256)[])":"6b532e9e","registryCoordinator()":"6d14a987","renounceOwnership()":"715018a6","respondToTask((uint256,uint32,bytes,uint32),(uint32,uint256),(uint32[],(uint256,uint256)[],(uint256,uint256)[],(uint256[2],uint256[2]),(uint256,uint256),uint32[],uint32[],uint32[][]))":"5baec9a0","setPauserRegistry(address)":"10d67a2f","setStaleStakesForbidden(bool)":"416c7e5e","stakeRegistry()":"68304835","staleStakesForbidden()":"b98d0908","taskNumber()":"72d18e8d","taskSuccesfullyChallenged(uint32)":"5decc3f5","transferOwnership(address)":"f2fde38b","trySignatureAndApkVerification(bytes32,(uint256,uint256),(uint256[2],uint256[2]),(uint256,uint256))":"171f1d5b","unpause(uint256)":"fabc1cbc"},"id":54}